{
  "_format": "hh-sol-artifact-1",
  "contractName": "DarkDuckNFT",
  "sourceName": "src/contracts/DarkDuckNFT.sol",
  "abi": [
    {
      "inputs": [
        {
          "internalType": "address",
          "name": "_feeCollector",
          "type": "address"
        }
      ],
      "stateMutability": "nonpayable",
      "type": "constructor"
    },
    {
      "inputs": [
        {
          "internalType": "address",
          "name": "sender",
          "type": "address"
        },
        {
          "internalType": "uint256",
          "name": "tokenId",
          "type": "uint256"
        },
        {
          "internalType": "address",
          "name": "owner",
          "type": "address"
        }
      ],
      "name": "ERC721IncorrectOwner",
      "type": "error"
    },
    {
      "inputs": [
        {
          "internalType": "address",
          "name": "operator",
          "type": "address"
        },
        {
          "internalType": "uint256",
          "name": "tokenId",
          "type": "uint256"
        }
      ],
      "name": "ERC721InsufficientApproval",
      "type": "error"
    },
    {
      "inputs": [
        {
          "internalType": "address",
          "name": "approver",
          "type": "address"
        }
      ],
      "name": "ERC721InvalidApprover",
      "type": "error"
    },
    {
      "inputs": [
        {
          "internalType": "address",
          "name": "operator",
          "type": "address"
        }
      ],
      "name": "ERC721InvalidOperator",
      "type": "error"
    },
    {
      "inputs": [
        {
          "internalType": "address",
          "name": "owner",
          "type": "address"
        }
      ],
      "name": "ERC721InvalidOwner",
      "type": "error"
    },
    {
      "inputs": [
        {
          "internalType": "address",
          "name": "receiver",
          "type": "address"
        }
      ],
      "name": "ERC721InvalidReceiver",
      "type": "error"
    },
    {
      "inputs": [
        {
          "internalType": "address",
          "name": "sender",
          "type": "address"
        }
      ],
      "name": "ERC721InvalidSender",
      "type": "error"
    },
    {
      "inputs": [
        {
          "internalType": "uint256",
          "name": "tokenId",
          "type": "uint256"
        }
      ],
      "name": "ERC721NonexistentToken",
      "type": "error"
    },
    {
      "inputs": [
        {
          "internalType": "address",
          "name": "owner",
          "type": "address"
        }
      ],
      "name": "OwnableInvalidOwner",
      "type": "error"
    },
    {
      "inputs": [
        {
          "internalType": "address",
          "name": "account",
          "type": "address"
        }
      ],
      "name": "OwnableUnauthorizedAccount",
      "type": "error"
    },
    {
      "anonymous": false,
      "inputs": [
        {
          "indexed": true,
          "internalType": "address",
          "name": "owner",
          "type": "address"
        },
        {
          "indexed": true,
          "internalType": "address",
          "name": "approved",
          "type": "address"
        },
        {
          "indexed": true,
          "internalType": "uint256",
          "name": "tokenId",
          "type": "uint256"
        }
      ],
      "name": "Approval",
      "type": "event"
    },
    {
      "anonymous": false,
      "inputs": [
        {
          "indexed": true,
          "internalType": "address",
          "name": "owner",
          "type": "address"
        },
        {
          "indexed": true,
          "internalType": "address",
          "name": "operator",
          "type": "address"
        },
        {
          "indexed": false,
          "internalType": "bool",
          "name": "approved",
          "type": "bool"
        }
      ],
      "name": "ApprovalForAll",
      "type": "event"
    },
    {
      "anonymous": false,
      "inputs": [
        {
          "indexed": false,
          "internalType": "uint256",
          "name": "_fromTokenId",
          "type": "uint256"
        },
        {
          "indexed": false,
          "internalType": "uint256",
          "name": "_toTokenId",
          "type": "uint256"
        }
      ],
      "name": "BatchMetadataUpdate",
      "type": "event"
    },
    {
      "anonymous": false,
      "inputs": [
        {
          "indexed": true,
          "internalType": "address",
          "name": "collector",
          "type": "address"
        },
        {
          "indexed": false,
          "internalType": "uint256",
          "name": "amount",
          "type": "uint256"
        }
      ],
      "name": "FundsWithdrawn",
      "type": "event"
    },
    {
      "anonymous": false,
      "inputs": [
        {
          "indexed": false,
          "internalType": "uint256",
          "name": "_tokenId",
          "type": "uint256"
        }
      ],
      "name": "MetadataUpdate",
      "type": "event"
    },
    {
      "anonymous": false,
      "inputs": [
        {
          "indexed": true,
          "internalType": "address",
          "name": "to",
          "type": "address"
        },
        {
          "indexed": true,
          "internalType": "uint256",
          "name": "tokenId",
          "type": "uint256"
        },
        {
          "indexed": false,
          "internalType": "string",
          "name": "tokenURI",
          "type": "string"
        }
      ],
      "name": "NFTMinted",
      "type": "event"
    },
    {
      "anonymous": false,
      "inputs": [
        {
          "indexed": true,
          "internalType": "address",
          "name": "previousOwner",
          "type": "address"
        },
        {
          "indexed": true,
          "internalType": "address",
          "name": "newOwner",
          "type": "address"
        }
      ],
      "name": "OwnershipTransferred",
      "type": "event"
    },
    {
      "anonymous": false,
      "inputs": [
        {
          "indexed": true,
          "internalType": "address",
          "name": "from",
          "type": "address"
        },
        {
          "indexed": true,
          "internalType": "address",
          "name": "to",
          "type": "address"
        },
        {
          "indexed": true,
          "internalType": "uint256",
          "name": "tokenId",
          "type": "uint256"
        }
      ],
      "name": "Transfer",
      "type": "event"
    },
    {
      "inputs": [],
      "name": "accumulatedFees",
      "outputs": [
        {
          "internalType": "uint256",
          "name": "",
          "type": "uint256"
        }
      ],
      "stateMutability": "view",
      "type": "function"
    },
    {
      "inputs": [
        {
          "internalType": "address",
          "name": "to",
          "type": "address"
        },
        {
          "internalType": "uint256",
          "name": "tokenId",
          "type": "uint256"
        }
      ],
      "name": "approve",
      "outputs": [],
      "stateMutability": "nonpayable",
      "type": "function"
    },
    {
      "inputs": [
        {
          "internalType": "address",
          "name": "owner",
          "type": "address"
        }
      ],
      "name": "balanceOf",
      "outputs": [
        {
          "internalType": "uint256",
          "name": "",
          "type": "uint256"
        }
      ],
      "stateMutability": "view",
      "type": "function"
    },
    {
      "inputs": [
        {
          "internalType": "uint256",
          "name": "tokenId",
          "type": "uint256"
        }
      ],
      "name": "burn",
      "outputs": [],
      "stateMutability": "nonpayable",
      "type": "function"
    },
    {
      "inputs": [
        {
          "internalType": "uint256",
          "name": "tokenId",
          "type": "uint256"
        }
      ],
      "name": "buyDDNFT",
      "outputs": [],
      "stateMutability": "payable",
      "type": "function"
    },
    {
      "inputs": [],
      "name": "feeCollector",
      "outputs": [
        {
          "internalType": "address",
          "name": "",
          "type": "address"
        }
      ],
      "stateMutability": "view",
      "type": "function"
    },
    {
      "inputs": [],
      "name": "getAccumulatedFees",
      "outputs": [
        {
          "internalType": "uint256",
          "name": "",
          "type": "uint256"
        }
      ],
      "stateMutability": "view",
      "type": "function"
    },
    {
      "inputs": [
        {
          "internalType": "uint256",
          "name": "tokenId",
          "type": "uint256"
        }
      ],
      "name": "getApproved",
      "outputs": [
        {
          "internalType": "address",
          "name": "",
          "type": "address"
        }
      ],
      "stateMutability": "view",
      "type": "function"
    },
    {
      "inputs": [],
      "name": "getLastTokenId",
      "outputs": [
        {
          "internalType": "uint256",
          "name": "",
          "type": "uint256"
        }
      ],
      "stateMutability": "view",
      "type": "function"
    },
    {
      "inputs": [],
      "name": "getPlatformFee",
      "outputs": [
        {
          "internalType": "uint256",
          "name": "",
          "type": "uint256"
        }
      ],
      "stateMutability": "view",
      "type": "function"
    },
    {
      "inputs": [
        {
          "internalType": "address",
          "name": "owner",
          "type": "address"
        },
        {
          "internalType": "address",
          "name": "operator",
          "type": "address"
        }
      ],
      "name": "isApprovedForAll",
      "outputs": [
        {
          "internalType": "bool",
          "name": "",
          "type": "bool"
        }
      ],
      "stateMutability": "view",
      "type": "function"
    },
    {
      "inputs": [
        {
          "internalType": "uint256",
          "name": "tokenId",
          "type": "uint256"
        },
        {
          "internalType": "address",
          "name": "user",
          "type": "address"
        }
      ],
      "name": "isOwnerOfNFT",
      "outputs": [
        {
          "internalType": "bool",
          "name": "",
          "type": "bool"
        }
      ],
      "stateMutability": "view",
      "type": "function"
    },
    {
      "inputs": [
        {
          "internalType": "uint256",
          "name": "tokenId",
          "type": "uint256"
        },
        {
          "internalType": "uint256",
          "name": "price",
          "type": "uint256"
        }
      ],
      "name": "listForSale",
      "outputs": [],
      "stateMutability": "nonpayable",
      "type": "function"
    },
    {
      "inputs": [
        {
          "internalType": "uint256",
          "name": "",
          "type": "uint256"
        }
      ],
      "name": "listings",
      "outputs": [
        {
          "internalType": "bool",
          "name": "isForSale",
          "type": "bool"
        },
        {
          "internalType": "uint256",
          "name": "price",
          "type": "uint256"
        }
      ],
      "stateMutability": "view",
      "type": "function"
    },
    {
      "inputs": [
        {
          "internalType": "address",
          "name": "owner",
          "type": "address"
        },
        {
          "internalType": "string",
          "name": "tokenURI",
          "type": "string"
        }
      ],
      "name": "mintDDNFT",
      "outputs": [
        {
          "internalType": "uint256",
          "name": "",
          "type": "uint256"
        }
      ],
      "stateMutability": "nonpayable",
      "type": "function"
    },
    {
      "inputs": [],
      "name": "name",
      "outputs": [
        {
          "internalType": "string",
          "name": "",
          "type": "string"
        }
      ],
      "stateMutability": "view",
      "type": "function"
    },
    {
      "inputs": [],
      "name": "owner",
      "outputs": [
        {
          "internalType": "address",
          "name": "",
          "type": "address"
        }
      ],
      "stateMutability": "view",
      "type": "function"
    },
    {
      "inputs": [
        {
          "internalType": "uint256",
          "name": "tokenId",
          "type": "uint256"
        }
      ],
      "name": "ownerOf",
      "outputs": [
        {
          "internalType": "address",
          "name": "",
          "type": "address"
        }
      ],
      "stateMutability": "view",
      "type": "function"
    },
    {
      "inputs": [],
      "name": "platformFee",
      "outputs": [
        {
          "internalType": "uint256",
          "name": "",
          "type": "uint256"
        }
      ],
      "stateMutability": "view",
      "type": "function"
    },
    {
      "inputs": [],
      "name": "renounceOwnership",
      "outputs": [],
      "stateMutability": "nonpayable",
      "type": "function"
    },
    {
      "inputs": [
        {
          "internalType": "address",
          "name": "from",
          "type": "address"
        },
        {
          "internalType": "address",
          "name": "to",
          "type": "address"
        },
        {
          "internalType": "uint256",
          "name": "tokenId",
          "type": "uint256"
        }
      ],
      "name": "safeTransferFrom",
      "outputs": [],
      "stateMutability": "nonpayable",
      "type": "function"
    },
    {
      "inputs": [
        {
          "internalType": "address",
          "name": "from",
          "type": "address"
        },
        {
          "internalType": "address",
          "name": "to",
          "type": "address"
        },
        {
          "internalType": "uint256",
          "name": "tokenId",
          "type": "uint256"
        },
        {
          "internalType": "bytes",
          "name": "data",
          "type": "bytes"
        }
      ],
      "name": "safeTransferFrom",
      "outputs": [],
      "stateMutability": "nonpayable",
      "type": "function"
    },
    {
      "inputs": [
        {
          "internalType": "address",
          "name": "operator",
          "type": "address"
        },
        {
          "internalType": "bool",
          "name": "approved",
          "type": "bool"
        }
      ],
      "name": "setApprovalForAll",
      "outputs": [],
      "stateMutability": "nonpayable",
      "type": "function"
    },
    {
      "inputs": [
        {
          "internalType": "address",
          "name": "newCollector",
          "type": "address"
        }
      ],
      "name": "setFeeCollector",
      "outputs": [],
      "stateMutability": "nonpayable",
      "type": "function"
    },
    {
      "inputs": [
        {
          "internalType": "uint256",
          "name": "newFee",
          "type": "uint256"
        }
      ],
      "name": "setPlatformFee",
      "outputs": [],
      "stateMutability": "nonpayable",
      "type": "function"
    },
    {
      "inputs": [
        {
          "internalType": "bytes4",
          "name": "interfaceId",
          "type": "bytes4"
        }
      ],
      "name": "supportsInterface",
      "outputs": [
        {
          "internalType": "bool",
          "name": "",
          "type": "bool"
        }
      ],
      "stateMutability": "view",
      "type": "function"
    },
    {
      "inputs": [],
      "name": "symbol",
      "outputs": [
        {
          "internalType": "string",
          "name": "",
          "type": "string"
        }
      ],
      "stateMutability": "view",
      "type": "function"
    },
    {
      "inputs": [
        {
          "internalType": "uint256",
          "name": "tokenId",
          "type": "uint256"
        }
      ],
      "name": "tokenURI",
      "outputs": [
        {
          "internalType": "string",
          "name": "",
          "type": "string"
        }
      ],
      "stateMutability": "view",
      "type": "function"
    },
    {
      "inputs": [
        {
          "internalType": "address",
          "name": "from",
          "type": "address"
        },
        {
          "internalType": "address",
          "name": "to",
          "type": "address"
        },
        {
          "internalType": "uint256",
          "name": "tokenId",
          "type": "uint256"
        }
      ],
      "name": "transferFrom",
      "outputs": [],
      "stateMutability": "nonpayable",
      "type": "function"
    },
    {
      "inputs": [
        {
          "internalType": "address",
          "name": "to",
          "type": "address"
        },
        {
          "internalType": "uint256",
          "name": "tokenId",
          "type": "uint256"
        }
      ],
      "name": "transferNFT",
      "outputs": [],
      "stateMutability": "nonpayable",
      "type": "function"
    },
    {
      "inputs": [
        {
          "internalType": "address",
          "name": "newOwner",
          "type": "address"
        }
      ],
      "name": "transferOwnership",
      "outputs": [],
      "stateMutability": "nonpayable",
      "type": "function"
    },
    {
      "inputs": [
        {
          "internalType": "uint256",
          "name": "tokenId",
          "type": "uint256"
        }
      ],
      "name": "unlistFromSale",
      "outputs": [],
      "stateMutability": "nonpayable",
      "type": "function"
    },
    {
      "inputs": [
        {
          "internalType": "uint256",
          "name": "tokenId",
          "type": "uint256"
        },
        {
          "internalType": "uint256",
          "name": "newPrice",
          "type": "uint256"
        }
      ],
      "name": "updateSalePrice",
      "outputs": [],
      "stateMutability": "nonpayable",
      "type": "function"
    },
    {
      "inputs": [],
      "name": "withdrawFunds",
      "outputs": [],
      "stateMutability": "nonpayable",
      "type": "function"
    }
  ],
  "bytecode": "0x60806040526103e860095534801561001657600080fd5b50604051613fc0380380613fc0833981810160405281019061003891906102b9565b336040518060400160405280600b81526020017f4461726b4475636b4e46540000000000000000000000000000000000000000008152506040518060400160405280600581526020017f44444e465400000000000000000000000000000000000000000000000000000081525081600090816100b49190610536565b5080600190816100c49190610536565b505050600073ffffffffffffffffffffffffffffffffffffffff168173ffffffffffffffffffffffffffffffffffffffff16036101395760006040517f1e4fbdf70000000000000000000000000000000000000000000000000000000081526004016101309190610617565b60405180910390fd5b6101488161019060201b60201c565b5080600a60006101000a81548173ffffffffffffffffffffffffffffffffffffffff021916908373ffffffffffffffffffffffffffffffffffffffff16021790555050610632565b6000600760009054906101000a900473ffffffffffffffffffffffffffffffffffffffff16905081600760006101000a81548173ffffffffffffffffffffffffffffffffffffffff021916908373ffffffffffffffffffffffffffffffffffffffff1602179055508173ffffffffffffffffffffffffffffffffffffffff168173ffffffffffffffffffffffffffffffffffffffff167f8be0079c531659141344cd1fd0a4f28419497f9722a3daafe3b4186f6b6457e060405160405180910390a35050565b600080fd5b600073ffffffffffffffffffffffffffffffffffffffff82169050919050565b60006102868261025b565b9050919050565b6102968161027b565b81146102a157600080fd5b50565b6000815190506102b38161028d565b92915050565b6000602082840312156102cf576102ce610256565b5b60006102dd848285016102a4565b91505092915050565b600081519050919050565b7f4e487b7100000000000000000000000000000000000000000000000000000000600052604160045260246000fd5b7f4e487b7100000000000000000000000000000000000000000000000000000000600052602260045260246000fd5b6000600282049050600182168061036757607f821691505b60208210810361037a57610379610320565b5b50919050565b60008190508160005260206000209050919050565b60006020601f8301049050919050565b600082821b905092915050565b6000600883026103e27fffffffffffffffffffffffffffffffffffffffffffffffffffffffffffffffff826103a5565b6103ec86836103a5565b95508019841693508086168417925050509392505050565b6000819050919050565b6000819050919050565b600061043361042e61042984610404565b61040e565b610404565b9050919050565b6000819050919050565b61044d83610418565b6104616104598261043a565b8484546103b2565b825550505050565b600090565b610476610469565b610481818484610444565b505050565b5b818110156104a55761049a60008261046e565b600181019050610487565b5050565b601f8211156104ea576104bb81610380565b6104c484610395565b810160208510156104d3578190505b6104e76104df85610395565b830182610486565b50505b505050565b600082821c905092915050565b600061050d600019846008026104ef565b1980831691505092915050565b600061052683836104fc565b9150826002028217905092915050565b61053f826102e6565b67ffffffffffffffff811115610558576105576102f1565b5b610562825461034f565b61056d8282856104a9565b600060209050601f8311600181146105a0576000841561058e578287015190505b610598858261051a565b865550610600565b601f1984166105ae86610380565b60005b828110156105d6578489015182556001820191506020850194506020810190506105b1565b868310156105f357848901516105ef601f8916826104fc565b8355505b6001600288020188555050505b505050505050565b6106118161027b565b82525050565b600060208201905061062c6000830184610608565b92915050565b61397f806106416000396000f3fe6080604052600436106101f95760003560e01c806370e535681161010d578063a42dce80116100a0578063de74e57b1161006f578063de74e57b146106fc578063e5c002d21461073a578063e80d7fec14610777578063e985e9c5146107a0578063f2fde38b146107dd576101f9565b8063a42dce8014610642578063b88d4fde1461066b578063c415b95c14610694578063c87b56dd146106bf576101f9565b80638da5cb5b116100dc5780638da5cb5b1461059a57806394ab67fe146105c557806395d89b41146105ee578063a22cb46514610619576101f9565b806370e5356814610513578063715018a61461052f5780637221bb011461054657806383c4c00d1461056f576101f9565b806342842e0e11610190578063587f5ed71161015f578063587f5ed7146104185780635df45a37146104435780636352211e1461046e5780636ea8bc10146104ab57806370a08231146104d6576101f9565b806342842e0e1461036057806342966c6814610389578063449fd372146103b25780634896672e146103ef576101f9565b806312e8e2c3116101cc57806312e8e2c3146102cc57806323b872dd146102f557806324600fc31461031e57806326232a2e14610335576101f9565b806301ffc9a7146101fe57806306fdde031461023b578063081812fc14610266578063095ea7b3146102a3575b600080fd5b34801561020a57600080fd5b506102256004803603810190610220919061295f565b610806565b60405161023291906129a7565b60405180910390f35b34801561024757600080fd5b50610250610867565b60405161025d9190612a52565b60405180910390f35b34801561027257600080fd5b5061028d60048036038101906102889190612aaa565b6108f9565b60405161029a9190612b18565b60405180910390f35b3480156102af57600080fd5b506102ca60048036038101906102c59190612b5f565b610915565b005b3480156102d857600080fd5b506102f360048036038101906102ee9190612aaa565b61092b565b005b34801561030157600080fd5b5061031c60048036038101906103179190612b9f565b610982565b005b34801561032a57600080fd5b50610333610a84565b005b34801561034157600080fd5b5061034a610b77565b6040516103579190612c01565b60405180910390f35b34801561036c57600080fd5b5061038760048036038101906103829190612b9f565b610b7d565b005b34801561039557600080fd5b506103b060048036038101906103ab9190612aaa565b610b9d565b005b3480156103be57600080fd5b506103d960048036038101906103d49190612c1c565b610c27565b6040516103e691906129a7565b60405180910390f35b3480156103fb57600080fd5b5061041660048036038101906104119190612c5c565b610c68565b005b34801561042457600080fd5b5061042d610d33565b60405161043a9190612c01565b60405180910390f35b34801561044f57600080fd5b50610458610d39565b6040516104659190612c01565b60405180910390f35b34801561047a57600080fd5b5061049560048036038101906104909190612aaa565b610d43565b6040516104a29190612b18565b60405180910390f35b3480156104b757600080fd5b506104c0610d55565b6040516104cd9190612c01565b60405180910390f35b3480156104e257600080fd5b506104fd60048036038101906104f89190612c9c565b610d5f565b60405161050a9190612c01565b60405180910390f35b61052d60048036038101906105289190612aaa565b610e19565b005b34801561053b57600080fd5b50610544610fdf565b005b34801561055257600080fd5b5061056d60048036038101906105689190612aaa565b610ff3565b005b34801561057b57600080fd5b5061058461106e565b6040516105919190612c01565b60405180910390f35b3480156105a657600080fd5b506105af611078565b6040516105bc9190612b18565b60405180910390f35b3480156105d157600080fd5b506105ec60048036038101906105e79190612b5f565b6110a2565b005b3480156105fa57600080fd5b506106036110fa565b6040516106109190612a52565b60405180910390f35b34801561062557600080fd5b50610640600480360381019061063b9190612cf5565b61118c565b005b34801561064e57600080fd5b5061066960048036038101906106649190612c9c565b6111a2565b005b34801561067757600080fd5b50610692600480360381019061068d9190612e6a565b61125d565b005b3480156106a057600080fd5b506106a9611282565b6040516106b69190612b18565b60405180910390f35b3480156106cb57600080fd5b506106e660048036038101906106e19190612aaa565b6112a8565b6040516106f39190612a52565b60405180910390f35b34801561070857600080fd5b50610723600480360381019061071e9190612aaa565b6113bb565b604051610731929190612eed565b60405180910390f35b34801561074657600080fd5b50610761600480360381019061075c9190612fb7565b6113ec565b60405161076e9190612c01565b60405180910390f35b34801561078357600080fd5b5061079e60048036038101906107999190612c5c565b6114c6565b005b3480156107ac57600080fd5b506107c760048036038101906107c29190613013565b611575565b6040516107d491906129a7565b60405180910390f35b3480156107e957600080fd5b5061080460048036038101906107ff9190612c9c565b611609565b005b6000634906490660e01b7bffffffffffffffffffffffffffffffffffffffffffffffffffffffff1916827bffffffffffffffffffffffffffffffffffffffffffffffffffffffff19161480610860575061085f8261168f565b5b9050919050565b60606000805461087690613082565b80601f01602080910402602001604051908101604052809291908181526020018280546108a290613082565b80156108ef5780601f106108c4576101008083540402835291602001916108ef565b820191906000526020600020905b8154815290600101906020018083116108d257829003601f168201915b5050505050905090565b600061090482611771565b5061090e826117f9565b9050919050565b6109278282610922611836565b61183e565b5050565b610933611850565b6103e8811115610978576040517f08c379a000000000000000000000000000000000000000000000000000000000815260040161096f906130ff565b60405180910390fd5b8060098190555050565b600073ffffffffffffffffffffffffffffffffffffffff168273ffffffffffffffffffffffffffffffffffffffff16036109f45760006040517f64a0ae920000000000000000000000000000000000000000000000000000000081526004016109eb9190612b18565b60405180910390fd5b6000610a088383610a03611836565b6118d7565b90508373ffffffffffffffffffffffffffffffffffffffff168173ffffffffffffffffffffffffffffffffffffffff1614610a7e578382826040517f64283d7b000000000000000000000000000000000000000000000000000000008152600401610a759392919061311f565b60405180910390fd5b50505050565b610a8c611850565b6000600b5490506000600b81905550600a60009054906101000a900473ffffffffffffffffffffffffffffffffffffffff1673ffffffffffffffffffffffffffffffffffffffff166108fc829081150290604051600060405180830381858888f19350505050158015610b03573d6000803e3d6000fd5b50600a60009054906101000a900473ffffffffffffffffffffffffffffffffffffffff1673ffffffffffffffffffffffffffffffffffffffff167feaff4b37086828766ad3268786972c0cd24259d4c87a80f9d3963a3c3d999b0d82604051610b6c9190612c01565b60405180910390a250565b60095481565b610b988383836040518060200160405280600081525061125d565b505050565b610ba5611850565b3373ffffffffffffffffffffffffffffffffffffffff16610bc582610d43565b73ffffffffffffffffffffffffffffffffffffffff1614610c1b576040517f08c379a0000000000000000000000000000000000000000000000000000000008152600401610c12906131a2565b60405180910390fd5b610c2481611af1565b50565b60008173ffffffffffffffffffffffffffffffffffffffff16610c4984610d43565b73ffffffffffffffffffffffffffffffffffffffff1614905092915050565b610c728233610c27565b610cb1576040517f08c379a0000000000000000000000000000000000000000000000000000000008152600401610ca89061320e565b60405180910390fd5b600c600083815260200190815260200160002060000160009054906101000a900460ff16610d14576040517f08c379a0000000000000000000000000000000000000000000000000000000008152600401610d0b9061327a565b60405180910390fd5b80600c6000848152602001908152602001600020600101819055505050565b600b5481565b6000600b54905090565b6000610d4e82611771565b9050919050565b6000600954905090565b60008073ffffffffffffffffffffffffffffffffffffffff168273ffffffffffffffffffffffffffffffffffffffff1603610dd25760006040517f89c62b64000000000000000000000000000000000000000000000000000000008152600401610dc99190612b18565b60405180910390fd5b600360008373ffffffffffffffffffffffffffffffffffffffff1673ffffffffffffffffffffffffffffffffffffffff168152602001908152602001600020549050919050565b6000600c60008381526020019081526020016000206040518060400160405290816000820160009054906101000a900460ff1615151515815260200160018201548152505090508060000151610ea4576040517f08c379a0000000000000000000000000000000000000000000000000000000008152600401610e9b9061327a565b60405180910390fd5b60006127106009548360200151610ebb91906132c9565b610ec5919061333a565b8260200151610ed4919061336b565b905080341015610f19576040517f08c379a0000000000000000000000000000000000000000000000000000000008152600401610f10906133eb565b60405180910390fd5b6000610f2484610d43565b9050610f31813386611b77565b6000836020015183610f43919061340b565b905080600b6000828254610f57919061336b565b925050819055508173ffffffffffffffffffffffffffffffffffffffff166108fc85602001519081150290604051600060405180830381858888f19350505050158015610fa8573d6000803e3d6000fd5b506000600c600087815260200190815260200160002060000160006101000a81548160ff0219169083151502179055505050505050565b610fe7611850565b610ff16000611ce4565b565b610ffd8133610c27565b61103c576040517f08c379a00000000000000000000000000000000000000000000000000000000081526004016110339061320e565b60405180910390fd5b6000600c600083815260200190815260200160002060000160006101000a81548160ff02191690831515021790555050565b6000600854905090565b6000600760009054906101000a900473ffffffffffffffffffffffffffffffffffffffff16905090565b6110ac8133610c27565b6110eb576040517f08c379a00000000000000000000000000000000000000000000000000000000081526004016110e29061320e565b60405180910390fd5b6110f6338383611b77565b5050565b60606001805461110990613082565b80601f016020809104026020016040519081016040528092919081815260200182805461113590613082565b80156111825780601f1061115757610100808354040283529160200191611182565b820191906000526020600020905b81548152906001019060200180831161116557829003601f168201915b5050505050905090565b61119e611197611836565b8383611daa565b5050565b6111aa611850565b600073ffffffffffffffffffffffffffffffffffffffff168173ffffffffffffffffffffffffffffffffffffffff1603611219576040517f08c379a00000000000000000000000000000000000000000000000000000000081526004016112109061348b565b60405180910390fd5b80600a60006101000a81548173ffffffffffffffffffffffffffffffffffffffff021916908373ffffffffffffffffffffffffffffffffffffffff16021790555050565b611268848484610982565b61127c611273611836565b85858585611f19565b50505050565b600a60009054906101000a900473ffffffffffffffffffffffffffffffffffffffff1681565b60606112b382611771565b5060006006600084815260200190815260200160002080546112d490613082565b80601f016020809104026020016040519081016040528092919081815260200182805461130090613082565b801561134d5780601f106113225761010080835404028352916020019161134d565b820191906000526020600020905b81548152906001019060200180831161133057829003601f168201915b50505050509050600061135e6120ca565b905060008151036113735781925050506113b6565b6000825111156113a85780826040516020016113909291906134e7565b604051602081830303815290604052925050506113b6565b6113b1846120e1565b925050505b919050565b600c6020528060005260406000206000915090508060000160009054906101000a900460ff16908060010154905082565b60006113f6611850565b600082511161143a576040517f08c379a000000000000000000000000000000000000000000000000000000000815260040161143190613557565b60405180910390fd5b6008600081548092919061144d90613577565b919050555060006008549050611463848261214a565b61146d8184612168565b808473ffffffffffffffffffffffffffffffffffffffff167fd35bb95e09c04b219e35047ce7b7b300e3384264ef84a40456943dbc0fc17c14856040516114b49190612a52565b60405180910390a38091505092915050565b6114d08233610c27565b61150f576040517f08c379a00000000000000000000000000000000000000000000000000000000081526004016115069061320e565b60405180910390fd5b6115193083610915565b604051806040016040528060011515815260200182815250600c600084815260200190815260200160002060008201518160000160006101000a81548160ff021916908315150217905550602082015181600101559050505050565b6000600560008473ffffffffffffffffffffffffffffffffffffffff1673ffffffffffffffffffffffffffffffffffffffff16815260200190815260200160002060008373ffffffffffffffffffffffffffffffffffffffff1673ffffffffffffffffffffffffffffffffffffffff16815260200190815260200160002060009054906101000a900460ff16905092915050565b611611611850565b600073ffffffffffffffffffffffffffffffffffffffff168173ffffffffffffffffffffffffffffffffffffffff16036116835760006040517f1e4fbdf700000000000000000000000000000000000000000000000000000000815260040161167a9190612b18565b60405180910390fd5b61168c81611ce4565b50565b60007f80ac58cd000000000000000000000000000000000000000000000000000000007bffffffffffffffffffffffffffffffffffffffffffffffffffffffff1916827bffffffffffffffffffffffffffffffffffffffffffffffffffffffff1916148061175a57507f5b5e139f000000000000000000000000000000000000000000000000000000007bffffffffffffffffffffffffffffffffffffffffffffffffffffffff1916827bffffffffffffffffffffffffffffffffffffffffffffffffffffffff1916145b8061176a5750611769826121c4565b5b9050919050565b60008061177d8361222e565b9050600073ffffffffffffffffffffffffffffffffffffffff168173ffffffffffffffffffffffffffffffffffffffff16036117f057826040517f7e2732890000000000000000000000000000000000000000000000000000000081526004016117e79190612c01565b60405180910390fd5b80915050919050565b60006004600083815260200190815260200160002060009054906101000a900473ffffffffffffffffffffffffffffffffffffffff169050919050565b600033905090565b61184b838383600161226b565b505050565b611858611836565b73ffffffffffffffffffffffffffffffffffffffff16611876611078565b73ffffffffffffffffffffffffffffffffffffffff16146118d557611899611836565b6040517f118cdaa70000000000000000000000000000000000000000000000000000000081526004016118cc9190612b18565b60405180910390fd5b565b6000806118e38461222e565b9050600073ffffffffffffffffffffffffffffffffffffffff168373ffffffffffffffffffffffffffffffffffffffff161461192557611924818486612430565b5b600073ffffffffffffffffffffffffffffffffffffffff168173ffffffffffffffffffffffffffffffffffffffff16146119b65761196760008560008061226b565b6001600360008373ffffffffffffffffffffffffffffffffffffffff1673ffffffffffffffffffffffffffffffffffffffff168152602001908152602001600020600082825403925050819055505b600073ffffffffffffffffffffffffffffffffffffffff168573ffffffffffffffffffffffffffffffffffffffff1614611a39576001600360008773ffffffffffffffffffffffffffffffffffffffff1673ffffffffffffffffffffffffffffffffffffffff168152602001908152602001600020600082825401925050819055505b846002600086815260200190815260200160002060006101000a81548173ffffffffffffffffffffffffffffffffffffffff021916908373ffffffffffffffffffffffffffffffffffffffff160217905550838573ffffffffffffffffffffffffffffffffffffffff168273ffffffffffffffffffffffffffffffffffffffff167fddf252ad1be2c89b69c2b068fc378daa952ba7f163c4a11628f55a4df523b3ef60405160405180910390a4809150509392505050565b6000611b0060008360006118d7565b9050600073ffffffffffffffffffffffffffffffffffffffff168173ffffffffffffffffffffffffffffffffffffffff1603611b7357816040517f7e273289000000000000000000000000000000000000000000000000000000008152600401611b6a9190612c01565b60405180910390fd5b5050565b600073ffffffffffffffffffffffffffffffffffffffff168273ffffffffffffffffffffffffffffffffffffffff1603611be95760006040517f64a0ae92000000000000000000000000000000000000000000000000000000008152600401611be09190612b18565b60405180910390fd5b6000611bf7838360006118d7565b9050600073ffffffffffffffffffffffffffffffffffffffff168173ffffffffffffffffffffffffffffffffffffffff1603611c6a57816040517f7e273289000000000000000000000000000000000000000000000000000000008152600401611c619190612c01565b60405180910390fd5b8373ffffffffffffffffffffffffffffffffffffffff168173ffffffffffffffffffffffffffffffffffffffff1614611cde578382826040517f64283d7b000000000000000000000000000000000000000000000000000000008152600401611cd59392919061311f565b60405180910390fd5b50505050565b6000600760009054906101000a900473ffffffffffffffffffffffffffffffffffffffff16905081600760006101000a81548173ffffffffffffffffffffffffffffffffffffffff021916908373ffffffffffffffffffffffffffffffffffffffff1602179055508173ffffffffffffffffffffffffffffffffffffffff168173ffffffffffffffffffffffffffffffffffffffff167f8be0079c531659141344cd1fd0a4f28419497f9722a3daafe3b4186f6b6457e060405160405180910390a35050565b600073ffffffffffffffffffffffffffffffffffffffff168273ffffffffffffffffffffffffffffffffffffffff1603611e1b57816040517f5b08ba18000000000000000000000000000000000000000000000000000000008152600401611e129190612b18565b60405180910390fd5b80600560008573ffffffffffffffffffffffffffffffffffffffff1673ffffffffffffffffffffffffffffffffffffffff16815260200190815260200160002060008473ffffffffffffffffffffffffffffffffffffffff1673ffffffffffffffffffffffffffffffffffffffff16815260200190815260200160002060006101000a81548160ff0219169083151502179055508173ffffffffffffffffffffffffffffffffffffffff168373ffffffffffffffffffffffffffffffffffffffff167f17307eab39ab6107e8899845ad3d59bd9653f200f220920489ca2b5937696c3183604051611f0c91906129a7565b60405180910390a3505050565b60008373ffffffffffffffffffffffffffffffffffffffff163b11156120c3578273ffffffffffffffffffffffffffffffffffffffff1663150b7a02868685856040518563ffffffff1660e01b8152600401611f789493929190613614565b6020604051808303816000875af1925050508015611fb457506040513d601f19601f82011682018060405250810190611fb19190613675565b60015b612038573d8060008114611fe4576040519150601f19603f3d011682016040523d82523d6000602084013e611fe9565b606091505b50600081510361203057836040517f64a0ae920000000000000000000000000000000000000000000000000000000081526004016120279190612b18565b60405180910390fd5b805181602001fd5b63150b7a0260e01b7bffffffffffffffffffffffffffffffffffffffffffffffffffffffff1916817bffffffffffffffffffffffffffffffffffffffffffffffffffffffff1916146120c157836040517f64a0ae920000000000000000000000000000000000000000000000000000000081526004016120b89190612b18565b60405180910390fd5b505b5050505050565b606060405180602001604052806000815250905090565b60606120ec82611771565b5060006120f76120ca565b905060008151116121175760405180602001604052806000815250612142565b80612121846124f4565b6040516020016121329291906134e7565b6040516020818303038152906040525b915050919050565b6121648282604051806020016040528060008152506125c2565b5050565b80600660008481526020019081526020016000209081612188919061384e565b507ff8e1a15aba9398e019f0b49df1a4fde98ee17ae345cb5f6b5e2c27f5033e8ce7826040516121b89190612c01565b60405180910390a15050565b60007f01ffc9a7000000000000000000000000000000000000000000000000000000007bffffffffffffffffffffffffffffffffffffffffffffffffffffffff1916827bffffffffffffffffffffffffffffffffffffffffffffffffffffffff1916149050919050565b60006002600083815260200190815260200160002060009054906101000a900473ffffffffffffffffffffffffffffffffffffffff169050919050565b80806122a45750600073ffffffffffffffffffffffffffffffffffffffff168273ffffffffffffffffffffffffffffffffffffffff1614155b156123d85760006122b484611771565b9050600073ffffffffffffffffffffffffffffffffffffffff168373ffffffffffffffffffffffffffffffffffffffff161415801561231f57508273ffffffffffffffffffffffffffffffffffffffff168173ffffffffffffffffffffffffffffffffffffffff1614155b801561233257506123308184611575565b155b1561237457826040517fa9fbf51f00000000000000000000000000000000000000000000000000000000815260040161236b9190612b18565b60405180910390fd5b81156123d657838573ffffffffffffffffffffffffffffffffffffffff168273ffffffffffffffffffffffffffffffffffffffff167f8c5be1e5ebec7d5bd14f71427d1e84f3dd0314c0f7b2291e5b200ac8c7c3b92560405160405180910390a45b505b836004600085815260200190815260200160002060006101000a81548173ffffffffffffffffffffffffffffffffffffffff021916908373ffffffffffffffffffffffffffffffffffffffff16021790555050505050565b61243b8383836125e6565b6124ef57600073ffffffffffffffffffffffffffffffffffffffff168373ffffffffffffffffffffffffffffffffffffffff16036124b057806040517f7e2732890000000000000000000000000000000000000000000000000000000081526004016124a79190612c01565b60405180910390fd5b81816040517f177e802f0000000000000000000000000000000000000000000000000000000081526004016124e6929190613920565b60405180910390fd5b505050565b606060006001612503846126a7565b01905060008167ffffffffffffffff81111561252257612521612d3f565b5b6040519080825280601f01601f1916602001820160405280156125545781602001600182028036833780820191505090505b509050600082602001820190505b6001156125b7578080600190039150507f3031323334353637383961626364656600000000000000000000000000000000600a86061a8153600a85816125ab576125aa61330b565b5b04945060008503612562575b819350505050919050565b6125cc83836127fa565b6125e16125d7611836565b6000858585611f19565b505050565b60008073ffffffffffffffffffffffffffffffffffffffff168373ffffffffffffffffffffffffffffffffffffffff161415801561269e57508273ffffffffffffffffffffffffffffffffffffffff168473ffffffffffffffffffffffffffffffffffffffff16148061265f575061265e8484611575565b5b8061269d57508273ffffffffffffffffffffffffffffffffffffffff16612685836117f9565b73ffffffffffffffffffffffffffffffffffffffff16145b5b90509392505050565b600080600090507a184f03e93ff9f4daa797ed6e38ed64bf6a1f0100000000000000008310612705577a184f03e93ff9f4daa797ed6e38ed64bf6a1f01000000000000000083816126fb576126fa61330b565b5b0492506040810190505b6d04ee2d6d415b85acef81000000008310612742576d04ee2d6d415b85acef810000000083816127385761273761330b565b5b0492506020810190505b662386f26fc10000831061277157662386f26fc1000083816127675761276661330b565b5b0492506010810190505b6305f5e100831061279a576305f5e10083816127905761278f61330b565b5b0492506008810190505b61271083106127bf5761271083816127b5576127b461330b565b5b0492506004810190505b606483106127e257606483816127d8576127d761330b565b5b0492506002810190505b600a83106127f1576001810190505b80915050919050565b600073ffffffffffffffffffffffffffffffffffffffff168273ffffffffffffffffffffffffffffffffffffffff160361286c5760006040517f64a0ae920000000000000000000000000000000000000000000000000000000081526004016128639190612b18565b60405180910390fd5b600061287a838360006118d7565b9050600073ffffffffffffffffffffffffffffffffffffffff168173ffffffffffffffffffffffffffffffffffffffff16146128ee5760006040517f73c6ac6e0000000000000000000000000000000000000000000000000000000081526004016128e59190612b18565b60405180910390fd5b505050565b6000604051905090565b600080fd5b600080fd5b60007fffffffff0000000000000000000000000000000000000000000000000000000082169050919050565b61293c81612907565b811461294757600080fd5b50565b60008135905061295981612933565b92915050565b600060208284031215612975576129746128fd565b5b60006129838482850161294a565b91505092915050565b60008115159050919050565b6129a18161298c565b82525050565b60006020820190506129bc6000830184612998565b92915050565b600081519050919050565b600082825260208201905092915050565b60005b838110156129fc5780820151818401526020810190506129e1565b60008484015250505050565b6000601f19601f8301169050919050565b6000612a24826129c2565b612a2e81856129cd565b9350612a3e8185602086016129de565b612a4781612a08565b840191505092915050565b60006020820190508181036000830152612a6c8184612a19565b905092915050565b6000819050919050565b612a8781612a74565b8114612a9257600080fd5b50565b600081359050612aa481612a7e565b92915050565b600060208284031215612ac057612abf6128fd565b5b6000612ace84828501612a95565b91505092915050565b600073ffffffffffffffffffffffffffffffffffffffff82169050919050565b6000612b0282612ad7565b9050919050565b612b1281612af7565b82525050565b6000602082019050612b2d6000830184612b09565b92915050565b612b3c81612af7565b8114612b4757600080fd5b50565b600081359050612b5981612b33565b92915050565b60008060408385031215612b7657612b756128fd565b5b6000612b8485828601612b4a565b9250506020612b9585828601612a95565b9150509250929050565b600080600060608486031215612bb857612bb76128fd565b5b6000612bc686828701612b4a565b9350506020612bd786828701612b4a565b9250506040612be886828701612a95565b9150509250925092565b612bfb81612a74565b82525050565b6000602082019050612c166000830184612bf2565b92915050565b60008060408385031215612c3357612c326128fd565b5b6000612c4185828601612a95565b9250506020612c5285828601612b4a565b9150509250929050565b60008060408385031215612c7357612c726128fd565b5b6000612c8185828601612a95565b9250506020612c9285828601612a95565b9150509250929050565b600060208284031215612cb257612cb16128fd565b5b6000612cc084828501612b4a565b91505092915050565b612cd28161298c565b8114612cdd57600080fd5b50565b600081359050612cef81612cc9565b92915050565b60008060408385031215612d0c57612d0b6128fd565b5b6000612d1a85828601612b4a565b9250506020612d2b85828601612ce0565b9150509250929050565b600080fd5b600080fd5b7f4e487b7100000000000000000000000000000000000000000000000000000000600052604160045260246000fd5b612d7782612a08565b810181811067ffffffffffffffff82111715612d9657612d95612d3f565b5b80604052505050565b6000612da96128f3565b9050612db58282612d6e565b919050565b600067ffffffffffffffff821115612dd557612dd4612d3f565b5b612dde82612a08565b9050602081019050919050565b82818337600083830152505050565b6000612e0d612e0884612dba565b612d9f565b905082815260208101848484011115612e2957612e28612d3a565b5b612e34848285612deb565b509392505050565b600082601f830112612e5157612e50612d35565b5b8135612e61848260208601612dfa565b91505092915050565b60008060008060808587031215612e8457612e836128fd565b5b6000612e9287828801612b4a565b9450506020612ea387828801612b4a565b9350506040612eb487828801612a95565b925050606085013567ffffffffffffffff811115612ed557612ed4612902565b5b612ee187828801612e3c565b91505092959194509250565b6000604082019050612f026000830185612998565b612f0f6020830184612bf2565b9392505050565b600067ffffffffffffffff821115612f3157612f30612d3f565b5b612f3a82612a08565b9050602081019050919050565b6000612f5a612f5584612f16565b612d9f565b905082815260208101848484011115612f7657612f75612d3a565b5b612f81848285612deb565b509392505050565b600082601f830112612f9e57612f9d612d35565b5b8135612fae848260208601612f47565b91505092915050565b60008060408385031215612fce57612fcd6128fd565b5b6000612fdc85828601612b4a565b925050602083013567ffffffffffffffff811115612ffd57612ffc612902565b5b61300985828601612f89565b9150509250929050565b6000806040838503121561302a576130296128fd565b5b600061303885828601612b4a565b925050602061304985828601612b4a565b9150509250929050565b7f4e487b7100000000000000000000000000000000000000000000000000000000600052602260045260246000fd5b6000600282049050600182168061309a57607f821691505b6020821081036130ad576130ac613053565b5b50919050565b7f4665652065786365656473206d6178696d756d20616c6c6f7765640000000000600082015250565b60006130e9601b836129cd565b91506130f4826130b3565b602082019050919050565b60006020820190508181036000830152613118816130dc565b9050919050565b60006060820190506131346000830186612b09565b6131416020830185612bf2565b61314e6040830184612b09565b949350505050565b7f4e6f7420617574686f72697a656420746f206275726e00000000000000000000600082015250565b600061318c6016836129cd565b915061319782613156565b602082019050919050565b600060208201905081810360008301526131bb8161317f565b9050919050565b7f4e6f7420746865206f776e657200000000000000000000000000000000000000600082015250565b60006131f8600d836129cd565b9150613203826131c2565b602082019050919050565b60006020820190508181036000830152613227816131eb565b9050919050565b7f4e4654206e6f7420666f722073616c6500000000000000000000000000000000600082015250565b60006132646010836129cd565b915061326f8261322e565b602082019050919050565b6000602082019050818103600083015261329381613257565b9050919050565b7f4e487b7100000000000000000000000000000000000000000000000000000000600052601160045260246000fd5b60006132d482612a74565b91506132df83612a74565b92508282026132ed81612a74565b915082820484148315176133045761330361329a565b5b5092915050565b7f4e487b7100000000000000000000000000000000000000000000000000000000600052601260045260246000fd5b600061334582612a74565b915061335083612a74565b9250826133605761335f61330b565b5b828204905092915050565b600061337682612a74565b915061338183612a74565b92508282019050808211156133995761339861329a565b5b92915050565b7f496e73756666696369656e742066756e64730000000000000000000000000000600082015250565b60006133d56012836129cd565b91506133e08261339f565b602082019050919050565b60006020820190508181036000830152613404816133c8565b9050919050565b600061341682612a74565b915061342183612a74565b92508282039050818111156134395761343861329a565b5b92915050565b7f496e76616c696420616464726573730000000000000000000000000000000000600082015250565b6000613475600f836129cd565b91506134808261343f565b602082019050919050565b600060208201905081810360008301526134a481613468565b9050919050565b600081905092915050565b60006134c1826129c2565b6134cb81856134ab565b93506134db8185602086016129de565b80840191505092915050565b60006134f382856134b6565b91506134ff82846134b6565b91508190509392505050565b7f546f6b656e205552492063616e6e6f7420626520656d70747900000000000000600082015250565b60006135416019836129cd565b915061354c8261350b565b602082019050919050565b6000602082019050818103600083015261357081613534565b9050919050565b600061358282612a74565b91507fffffffffffffffffffffffffffffffffffffffffffffffffffffffffffffffff82036135b4576135b361329a565b5b600182019050919050565b600081519050919050565b600082825260208201905092915050565b60006135e6826135bf565b6135f081856135ca565b93506136008185602086016129de565b61360981612a08565b840191505092915050565b60006080820190506136296000830187612b09565b6136366020830186612b09565b6136436040830185612bf2565b818103606083015261365581846135db565b905095945050505050565b60008151905061366f81612933565b92915050565b60006020828403121561368b5761368a6128fd565b5b600061369984828501613660565b91505092915050565b60008190508160005260206000209050919050565b60006020601f8301049050919050565b600082821b905092915050565b6000600883026137047fffffffffffffffffffffffffffffffffffffffffffffffffffffffffffffffff826136c7565b61370e86836136c7565b95508019841693508086168417925050509392505050565b6000819050919050565b600061374b61374661374184612a74565b613726565b612a74565b9050919050565b6000819050919050565b61376583613730565b61377961377182613752565b8484546136d4565b825550505050565b600090565b61378e613781565b61379981848461375c565b505050565b5b818110156137bd576137b2600082613786565b60018101905061379f565b5050565b601f821115613802576137d3816136a2565b6137dc846136b7565b810160208510156137eb578190505b6137ff6137f7856136b7565b83018261379e565b50505b505050565b600082821c905092915050565b600061382560001984600802613807565b1980831691505092915050565b600061383e8383613814565b9150826002028217905092915050565b613857826129c2565b67ffffffffffffffff8111156138705761386f612d3f565b5b61387a8254613082565b6138858282856137c1565b600060209050601f8311600181146138b857600084156138a6578287015190505b6138b08582613832565b865550613918565b601f1984166138c6866136a2565b60005b828110156138ee578489015182556001820191506020850194506020810190506138c9565b8683101561390b5784890151613907601f891682613814565b8355505b6001600288020188555050505b505050505050565b60006040820190506139356000830185612b09565b6139426020830184612bf2565b939250505056fea2646970667358221220ca4fe104c398b120b78b37443ce8d83b91c86764d7023d403c39e2b46279e59464736f6c634300081c0033",
  "linkReferences": {},
  "deployedLinkReferences": {}
}